{
  "contractName": "FoodItems",
  "abi": [
    {
      "inputs": [
        {
          "internalType": "address",
          "name": "_restaurantsAddress",
          "type": "address"
        }
      ],
      "stateMutability": "nonpayable",
      "type": "constructor"
    },
    {
      "inputs": [
        {
          "internalType": "enum FoodItems.Category",
          "name": "",
          "type": "uint8"
        },
        {
          "internalType": "enum FoodItems.MealType",
          "name": "",
          "type": "uint8"
        },
        {
          "internalType": "uint256",
          "name": "",
          "type": "uint256"
        }
      ],
      "name": "items",
      "outputs": [
        {
          "internalType": "string",
          "name": "name",
          "type": "string"
        },
        {
          "internalType": "uint256",
          "name": "price",
          "type": "uint256"
        }
      ],
      "stateMutability": "view",
      "type": "function",
      "constant": true
    },
    {
      "inputs": [
        {
          "internalType": "enum FoodItems.Category",
          "name": "_category",
          "type": "uint8"
        },
        {
          "internalType": "enum FoodItems.MealType",
          "name": "_type",
          "type": "uint8"
        },
        {
          "internalType": "string",
          "name": "_name",
          "type": "string"
        },
        {
          "internalType": "uint256",
          "name": "_price",
          "type": "uint256"
        }
      ],
      "name": "addItem",
      "outputs": [],
      "stateMutability": "nonpayable",
      "type": "function"
    },
    {
      "inputs": [
        {
          "internalType": "enum FoodItems.Category",
          "name": "_category",
          "type": "uint8"
        },
        {
          "internalType": "enum FoodItems.MealType",
          "name": "_type",
          "type": "uint8"
        }
      ],
      "name": "getItemCount",
      "outputs": [
        {
          "internalType": "uint256",
          "name": "",
          "type": "uint256"
        }
      ],
      "stateMutability": "view",
      "type": "function",
      "constant": true
    },
    {
      "inputs": [
        {
          "internalType": "enum FoodItems.Category",
          "name": "_category",
          "type": "uint8"
        },
        {
          "internalType": "enum FoodItems.MealType",
          "name": "_type",
          "type": "uint8"
        },
        {
          "internalType": "uint256",
          "name": "_index",
          "type": "uint256"
        }
      ],
      "name": "getItemDetails",
      "outputs": [
        {
          "internalType": "string",
          "name": "",
          "type": "string"
        },
        {
          "internalType": "uint256",
          "name": "",
          "type": "uint256"
        }
      ],
      "stateMutability": "view",
      "type": "function",
      "constant": true
    },
    {
      "inputs": [
        {
          "internalType": "uint256",
          "name": "_restaurantIndex",
          "type": "uint256"
        },
        {
          "internalType": "uint256",
          "name": "_outletIndex",
          "type": "uint256"
        },
        {
          "internalType": "enum FoodItems.Category",
          "name": "_category",
          "type": "uint8"
        },
        {
          "internalType": "enum FoodItems.MealType",
          "name": "_type",
          "type": "uint8"
        },
        {
          "internalType": "uint256",
          "name": "_itemIndex",
          "type": "uint256"
        }
      ],
      "name": "addFoodItem",
      "outputs": [],
      "stateMutability": "nonpayable",
      "type": "function"
    }
  ],
  "bytecode": "0x60806040523480156200001157600080fd5b50604051620013d3380380620013d38339818101604052810190620000379190620000d7565b80600160006101000a81548173ffffffffffffffffffffffffffffffffffffffff021916908373ffffffffffffffffffffffffffffffffffffffff16021790555080600260006101000a81548173ffffffffffffffffffffffffffffffffffffffff021916908373ffffffffffffffffffffffffffffffffffffffff1602179055505062000151565b600081519050620000d18162000137565b92915050565b600060208284031215620000ea57600080fd5b6000620000fa84828501620000c0565b91505092915050565b6000620001108262000117565b9050919050565b600073ffffffffffffffffffffffffffffffffffffffff82169050919050565b620001428162000103565b81146200014e57600080fd5b50565b61127280620001616000396000f3fe608060405234801561001057600080fd5b50600436106100575760003560e01c806308cff5cc1461005c578063799db4121461008d57806381b30a7a146100be578063b6cf77ab146100ee578063ecc07cd91461010a575b600080fd5b61007660048036038101906100719190610dad565b610126565b604051610084929190610fa4565b60405180910390f35b6100a760048036038101906100a29190610dad565b61047d565b6040516100b5929190610fa4565b60405180910390f35b6100d860048036038101906100d39190610cf6565b610553565b6040516100e59190611034565b60405180910390f35b61010860048036038101906101039190610d32565b610664565b005b610124600480360381019061011f9190610e25565b6107d4565b005b60606000806000866002811115610166577f4e487b7100000000000000000000000000000000000000000000000000000000600052602160045260246000fd5b600281111561019e577f4e487b7100000000000000000000000000000000000000000000000000000000600052602160045260246000fd5b815260200190815260200160002060008560018111156101e7577f4e487b7100000000000000000000000000000000000000000000000000000000600052602160045260246000fd5b600181111561021f577f4e487b7100000000000000000000000000000000000000000000000000000000600052602160045260246000fd5b8152602001908152602001600020805490508310610272576040517f08c379a000000000000000000000000000000000000000000000000000000000815260040161026990610fd4565b60405180910390fd5b60008060008760028111156102b0577f4e487b7100000000000000000000000000000000000000000000000000000000600052602160045260246000fd5b60028111156102e8577f4e487b7100000000000000000000000000000000000000000000000000000000600052602160045260246000fd5b81526020019081526020016000206000866001811115610331577f4e487b7100000000000000000000000000000000000000000000000000000000600052602160045260246000fd5b6001811115610369577f4e487b7100000000000000000000000000000000000000000000000000000000600052602160045260246000fd5b815260200190815260200160002084815481106103af577f4e487b7100000000000000000000000000000000000000000000000000000000600052603260045260246000fd5b90600052602060002090600202016040518060400160405290816000820180546103d890611164565b80601f016020809104026020016040519081016040528092919081815260200182805461040490611164565b80156104515780601f1061042657610100808354040283529160200191610451565b820191906000526020600020905b81548152906001019060200180831161043457829003601f168201915b505050505081526020016001820154815250509050806000015181602001519250925050935093915050565b600060205282600052604060002060205281600052604060002081815481106104a557600080fd5b906000526020600020906002020160009250925050508060000180546104ca90611164565b80601f01602080910402602001604051908101604052809291908181526020018280546104f690611164565b80156105435780601f1061051857610100808354040283529160200191610543565b820191906000526020600020905b81548152906001019060200180831161052657829003601f168201915b5050505050908060010154905082565b6000806000846002811115610591577f4e487b7100000000000000000000000000000000000000000000000000000000600052602160045260246000fd5b60028111156105c9577f4e487b7100000000000000000000000000000000000000000000000000000000600052602160045260246000fd5b81526020019081526020016000206000836001811115610612577f4e487b7100000000000000000000000000000000000000000000000000000000600052602160045260246000fd5b600181111561064a577f4e487b7100000000000000000000000000000000000000000000000000000000600052602160045260246000fd5b815260200190815260200160002080549050905092915050565b6000808560028111156106a0577f4e487b7100000000000000000000000000000000000000000000000000000000600052602160045260246000fd5b60028111156106d8577f4e487b7100000000000000000000000000000000000000000000000000000000600052602160045260246000fd5b81526020019081526020016000206000846001811115610721577f4e487b7100000000000000000000000000000000000000000000000000000000600052602160045260246000fd5b6001811115610759577f4e487b7100000000000000000000000000000000000000000000000000000000600052602160045260246000fd5b8152602001908152602001600020604051806040016040528084815260200183815250908060018154018082558091505060019003906000526020600020906002020160009091909190915060008201518160000190805190602001906107c1929190610b97565b5060208201518160010155505050505050565b600260009054906101000a900473ffffffffffffffffffffffffffffffffffffffff1673ffffffffffffffffffffffffffffffffffffffff16639d93b6406040518163ffffffff1660e01b815260040160206040518083038186803b15801561083c57600080fd5b505afa158015610850573d6000803e3d6000fd5b505050506040513d601f19601f820116820180604052508101906108749190610dfc565b85106108b5576040517f08c379a00000000000000000000000000000000000000000000000000000000081526004016108ac90611014565b60405180910390fd5b600260009054906101000a900473ffffffffffffffffffffffffffffffffffffffff1673ffffffffffffffffffffffffffffffffffffffff1663f35db2fb866040518263ffffffff1660e01b81526004016109109190611034565b60206040518083038186803b15801561092857600080fd5b505afa15801561093c573d6000803e3d6000fd5b505050506040513d601f19601f820116820180604052508101906109609190610dfc565b84106109a1576040517f08c379a000000000000000000000000000000000000000000000000000000000815260040161099890610ff4565b60405180910390fd5b6000808460028111156109dd577f4e487b7100000000000000000000000000000000000000000000000000000000600052602160045260246000fd5b6002811115610a15577f4e487b7100000000000000000000000000000000000000000000000000000000600052602160045260246000fd5b81526020019081526020016000206000836001811115610a5e577f4e487b7100000000000000000000000000000000000000000000000000000000600052602160045260246000fd5b6001811115610a96577f4e487b7100000000000000000000000000000000000000000000000000000000600052602160045260246000fd5b8152602001908152602001600020805490508110610ae9576040517f08c379a0000000000000000000000000000000000000000000000000000000008152600401610ae090610fd4565b60405180910390fd5b600080610af7858585610126565b91509150600260009054906101000a900473ffffffffffffffffffffffffffffffffffffffff1673ffffffffffffffffffffffffffffffffffffffff1663b47b793c888885856040518563ffffffff1660e01b8152600401610b5c949392919061104f565b600060405180830381600087803b158015610b7657600080fd5b505af1158015610b8a573d6000803e3d6000fd5b5050505050505050505050565b828054610ba390611164565b90600052602060002090601f016020900481019282610bc55760008555610c0c565b82601f10610bde57805160ff1916838001178555610c0c565b82800160010185558215610c0c579182015b82811115610c0b578251825591602001919060010190610bf0565b5b509050610c199190610c1d565b5090565b5b80821115610c36576000816000905550600101610c1e565b5090565b6000610c4d610c48846110cc565b61109b565b905082815260208101848484011115610c6557600080fd5b610c70848285611122565b509392505050565b600081359050610c8781611205565b92915050565b600081359050610c9c81611215565b92915050565b600082601f830112610cb357600080fd5b8135610cc3848260208601610c3a565b91505092915050565b600081359050610cdb81611225565b92915050565b600081519050610cf081611225565b92915050565b60008060408385031215610d0957600080fd5b6000610d1785828601610c78565b9250506020610d2885828601610c8d565b9150509250929050565b60008060008060808587031215610d4857600080fd5b6000610d5687828801610c78565b9450506020610d6787828801610c8d565b935050604085013567ffffffffffffffff811115610d8457600080fd5b610d9087828801610ca2565b9250506060610da187828801610ccc565b91505092959194509250565b600080600060608486031215610dc257600080fd5b6000610dd086828701610c78565b9350506020610de186828701610c8d565b9250506040610df286828701610ccc565b9150509250925092565b600060208284031215610e0e57600080fd5b6000610e1c84828501610ce1565b91505092915050565b600080600080600060a08688031215610e3d57600080fd5b6000610e4b88828901610ccc565b9550506020610e5c88828901610ccc565b9450506040610e6d88828901610c78565b9350506060610e7e88828901610c8d565b9250506080610e8f88828901610ccc565b9150509295509295909350565b6000610ea7826110fc565b610eb18185611107565b9350610ec1818560208601611131565b610eca816111f4565b840191505092915050565b6000610ee2601283611107565b91507f496e76616c6964206974656d20696e64657800000000000000000000000000006000830152602082019050919050565b6000610f22601483611107565b91507f496e76616c6964206f75746c657420696e6465780000000000000000000000006000830152602082019050919050565b6000610f62601883611107565b91507f496e76616c69642072657374617572616e7420696e64657800000000000000006000830152602082019050919050565b610f9e81611118565b82525050565b60006040820190508181036000830152610fbe8185610e9c565b9050610fcd6020830184610f95565b9392505050565b60006020820190508181036000830152610fed81610ed5565b9050919050565b6000602082019050818103600083015261100d81610f15565b9050919050565b6000602082019050818103600083015261102d81610f55565b9050919050565b60006020820190506110496000830184610f95565b92915050565b60006080820190506110646000830187610f95565b6110716020830186610f95565b81810360408301526110838185610e9c565b90506110926060830184610f95565b95945050505050565b6000604051905081810181811067ffffffffffffffff821117156110c2576110c16111c5565b5b8060405250919050565b600067ffffffffffffffff8211156110e7576110e66111c5565b5b601f19601f8301169050602081019050919050565b600081519050919050565b600082825260208201905092915050565b6000819050919050565b82818337600083830152505050565b60005b8381101561114f578082015181840152602081019050611134565b8381111561115e576000848401525b50505050565b6000600282049050600182168061117c57607f821691505b602082108114156111905761118f611196565b5b50919050565b7f4e487b7100000000000000000000000000000000000000000000000000000000600052602260045260246000fd5b7f4e487b7100000000000000000000000000000000000000000000000000000000600052604160045260246000fd5b6000601f19601f8301169050919050565b6003811061121257600080fd5b50565b6002811061122257600080fd5b50565b61122e81611118565b811461123957600080fd5b5056fea2646970667358221220eb56c62f2cb8793137ef861ed647d2c735dc79467e79ba4ed966d359391445e964736f6c63430008000033",
  "immutableReferences": {},
  "source": "// SPDX-License-Identifier: MIT\r\npragma solidity ^0.8.0;\r\n\r\nimport \"./restaurants.sol\";\r\n\r\ncontract FoodItems {\r\n    struct Item {\r\n        string name;\r\n        uint price;\r\n    }\r\n\r\n    // Enum to represent the food item categories (Veg, NonVeg, Egg)\r\n    enum Category { Veg, NonVeg, Egg }\r\n\r\n    // Enum to represent the type of meal (Main Course or Starters)\r\n    enum MealType { MainCourse, Starters }\r\n\r\n    mapping(Category => mapping(MealType => Item[])) public items;\r\n\r\n    // Address of the deployed Restaurants contract\r\n    address private restaurantsAddress;\r\n    Restaurants private restaurantsContract;\r\n\r\n    constructor(address _restaurantsAddress) {\r\n        restaurantsAddress = _restaurantsAddress;\r\n        restaurantsContract = Restaurants(_restaurantsAddress);\r\n    }\r\n\r\n    function addItem(\r\n        Category _category,\r\n        MealType _type,\r\n        string memory _name,\r\n        uint _price\r\n    ) public {\r\n        // Add the food item to the specified category and type\r\n        items[_category][_type].push(Item(_name, _price));\r\n    }\r\n\r\n    // Function to get the number of food items for a specific category and type\r\n    function getItemCount(Category _category, MealType _type) public view returns (uint) {\r\n        return items[_category][_type].length;\r\n    }\r\n\r\n    // Function to get the details of a specific food item for a category and type\r\n    function getItemDetails(Category _category, MealType _type, uint _index)\r\n        public\r\n        view\r\n        returns (string memory, uint)\r\n    {\r\n        require(_index < items[_category][_type].length, \"Invalid item index\");\r\n        Item memory item = items[_category][_type][_index];\r\n        return (item.name, item.price);\r\n    }\r\n\r\n    // Function to add a food item to a specific outlet of a specific restaurant\r\n    function addFoodItem(\r\n        uint _restaurantIndex,\r\n        uint _outletIndex,\r\n        Category _category,\r\n        MealType _type,\r\n        uint _itemIndex\r\n    ) public {\r\n        require(_restaurantIndex < restaurantsContract.getRestaurantCount(), \"Invalid restaurant index\");\r\n        require(_outletIndex < restaurantsContract.getOutletCount(_restaurantIndex), \"Invalid outlet index\");\r\n        require(_itemIndex < items[_category][_type].length, \"Invalid item index\");\r\n\r\n        // Get the food item details\r\n        (string memory itemName, uint itemPrice) = getItemDetails(_category, _type, _itemIndex);\r\n\r\n        // Add the food item to the specified outlet of the restaurant in the Restaurants contract\r\n        restaurantsContract.addFoodItem(_restaurantIndex, _outletIndex, itemName, itemPrice);\r\n    }\r\n}\r\n",
  "sourcePath": "D:\\Blockchain\\ZomatoDAPP\\contracts\\foodItems.sol",
  "compiler": {
    "name": "solc",
    "version": "0.8.0+commit.c7dfd78e.Emscripten.clang"
  },
  "schemaVersion": "3.4.15",
  "updatedAt": "2023-08-28T04:32:33.445Z",
  "networkType": "ethereum",
  "devdoc": {
    "kind": "dev",
    "methods": {},
    "version": 1
  },
  "userdoc": {
    "kind": "user",
    "methods": {},
    "version": 1
  }
}