{
  "contractName": "Restaurants",
  "abi": [
    {
      "inputs": [
        {
          "internalType": "uint256",
          "name": "",
          "type": "uint256"
        }
      ],
      "name": "foodItems",
      "outputs": [
        {
          "internalType": "string",
          "name": "name",
          "type": "string"
        },
        {
          "internalType": "uint256",
          "name": "price",
          "type": "uint256"
        }
      ],
      "stateMutability": "view",
      "type": "function",
      "constant": true
    },
    {
      "inputs": [
        {
          "internalType": "uint256",
          "name": "",
          "type": "uint256"
        }
      ],
      "name": "outlets",
      "outputs": [
        {
          "internalType": "string",
          "name": "name",
          "type": "string"
        },
        {
          "internalType": "string",
          "name": "location",
          "type": "string"
        },
        {
          "internalType": "uint256",
          "name": "rating",
          "type": "uint256"
        }
      ],
      "stateMutability": "view",
      "type": "function",
      "constant": true
    },
    {
      "inputs": [
        {
          "internalType": "uint256",
          "name": "",
          "type": "uint256"
        }
      ],
      "name": "restaurants",
      "outputs": [
        {
          "internalType": "string",
          "name": "name",
          "type": "string"
        },
        {
          "internalType": "string",
          "name": "location",
          "type": "string"
        }
      ],
      "stateMutability": "view",
      "type": "function",
      "constant": true
    },
    {
      "inputs": [
        {
          "internalType": "string",
          "name": "_name",
          "type": "string"
        },
        {
          "internalType": "string",
          "name": "_location",
          "type": "string"
        }
      ],
      "name": "addRestaurant",
      "outputs": [],
      "stateMutability": "nonpayable",
      "type": "function"
    },
    {
      "inputs": [
        {
          "internalType": "uint256",
          "name": "restaurantIndex",
          "type": "uint256"
        },
        {
          "internalType": "string",
          "name": "_name",
          "type": "string"
        },
        {
          "internalType": "string",
          "name": "_location",
          "type": "string"
        },
        {
          "internalType": "uint256",
          "name": "_rating",
          "type": "uint256"
        }
      ],
      "name": "addOutlet",
      "outputs": [],
      "stateMutability": "nonpayable",
      "type": "function"
    },
    {
      "inputs": [
        {
          "internalType": "uint256",
          "name": "restaurantIndex",
          "type": "uint256"
        }
      ],
      "name": "getOutletCount",
      "outputs": [
        {
          "internalType": "uint256",
          "name": "",
          "type": "uint256"
        }
      ],
      "stateMutability": "view",
      "type": "function",
      "constant": true
    },
    {
      "inputs": [
        {
          "internalType": "uint256",
          "name": "restaurantIndex",
          "type": "uint256"
        },
        {
          "internalType": "uint256",
          "name": "outletIndex",
          "type": "uint256"
        }
      ],
      "name": "getOutletDetails",
      "outputs": [
        {
          "internalType": "string",
          "name": "",
          "type": "string"
        },
        {
          "internalType": "string",
          "name": "",
          "type": "string"
        },
        {
          "internalType": "uint256",
          "name": "",
          "type": "uint256"
        }
      ],
      "stateMutability": "view",
      "type": "function",
      "constant": true
    },
    {
      "inputs": [],
      "name": "getRestaurantCount",
      "outputs": [
        {
          "internalType": "uint256",
          "name": "",
          "type": "uint256"
        }
      ],
      "stateMutability": "view",
      "type": "function",
      "constant": true
    },
    {
      "inputs": [
        {
          "internalType": "uint256",
          "name": "_restaurantIndex",
          "type": "uint256"
        },
        {
          "internalType": "uint256",
          "name": "_outletIndex",
          "type": "uint256"
        },
        {
          "internalType": "string",
          "name": "_name",
          "type": "string"
        },
        {
          "internalType": "uint256",
          "name": "_price",
          "type": "uint256"
        }
      ],
      "name": "addFoodItem",
      "outputs": [],
      "stateMutability": "nonpayable",
      "type": "function"
    },
    {
      "inputs": [
        {
          "internalType": "uint256",
          "name": "outletIndex",
          "type": "uint256"
        }
      ],
      "name": "getFoodItemCount",
      "outputs": [
        {
          "internalType": "uint256",
          "name": "",
          "type": "uint256"
        }
      ],
      "stateMutability": "view",
      "type": "function",
      "constant": true
    },
    {
      "inputs": [
        {
          "internalType": "uint256",
          "name": "outletIndex",
          "type": "uint256"
        },
        {
          "internalType": "uint256",
          "name": "itemIndex",
          "type": "uint256"
        }
      ],
      "name": "getFoodItems",
      "outputs": [
        {
          "internalType": "string",
          "name": "",
          "type": "string"
        },
        {
          "internalType": "uint256",
          "name": "",
          "type": "uint256"
        }
      ],
      "stateMutability": "view",
      "type": "function",
      "constant": true
    }
  ],
  "bytecode": "0x608060405234801561001057600080fd5b50611795806100206000396000f3fe608060405234801561001057600080fd5b50600436106100a95760003560e01c80639d93b640116100715780639d93b6401461017a578063ad5461d814610198578063b47b793c146101c9578063f11cc555146101e5578063f35db2fb14610217578063f613d1a714610247576100a9565b80630ac52e65146100ae5780630e10bb93146100df57806363250796146101105780638233f7fb1461012c578063862bb04314610148575b600080fd5b6100c860048036038101906100c39190611239565b610277565b6040516100d69291906114f0565b60405180910390f35b6100f960048036038101906100f491906112f5565b610333565b6040516101079291906114f0565b60405180910390f35b61012a600480360381019061012591906111cd565b6104ac565b005b61014660048036038101906101419190611262565b610552565b005b610162600480360381019061015d91906112f5565b6106d3565b604051610171939291906114ab565b60405180910390f35b610182610a3a565b60405161018f9190611560565b60405180910390f35b6101b260048036038101906101ad9190611239565b610a46565b6040516101c0929190611474565b60405180910390f35b6101e360048036038101906101de9190611331565b610b8a565b005b6101ff60048036038101906101fa9190611239565b610dd9565b60405161020e939291906114ab565b60405180910390f35b610231600480360381019061022c9190611239565b610f23565b60405161023e9190611560565b60405180910390f35b610261600480360381019061025c9190611239565b610fc1565b60405161026e9190611560565b60405180910390f35b6002818154811061028757600080fd5b90600052602060002090600202016000915090508060000180546102aa90611678565b80601f01602080910402602001604051908101604052809291908181526020018280546102d690611678565b80156103235780601f106102f857610100808354040283529160200191610323565b820191906000526020600020905b81548152906001019060200180831161030657829003601f168201915b5050505050908060010154905082565b60606000600180549050841061037e576040517f08c379a000000000000000000000000000000000000000000000000000000000815260040161037590611520565b60405180910390fd5b600283815481106103b8577f4e487b7100000000000000000000000000000000000000000000000000000000600052603260045260246000fd5b906000526020600020906002020160000160028481548110610403577f4e487b7100000000000000000000000000000000000000000000000000000000600052603260045260246000fd5b90600052602060002090600202016001015481805461042190611678565b80601f016020809104026020016040519081016040528092919081815260200182805461044d90611678565b801561049a5780601f1061046f5761010080835404028352916020019161049a565b820191906000526020600020905b81548152906001019060200180831161047d57829003601f168201915b50505050509150915091509250929050565b6060600060405180606001604052808581526020018481526020018381525090806001815401808255809150506001900390600052602060002090600302016000909190919091506000820151816000019080519060200190610510929190611060565b50602082015181600101908051906020019061052d929190611060565b50604082015181600201908051906020019061054a9291906110e6565b505050505050565b6000805490508410610599576040517f08c379a000000000000000000000000000000000000000000000000000000000815260040161059090611540565b60405180910390fd5b6060600160405180608001604052808681526020018581526020018481526020018381525090806001815401808255809150506001900390600052602060002090600402016000909190919091506000820151816000019080519060200190610603929190611060565b506020820151816001019080519060200190610620929190611060565b506040820151816002015560608201518160030190805190602001906106479291906110e6565b50505060008581548110610684577f4e487b7100000000000000000000000000000000000000000000000000000000600052603260045260246000fd5b9060005260206000209060030201600201600180805490506106a691906115f8565b90806001815401808255809150506001900390600052602060002001600090919091909150555050505050565b60608060008080549050851061071e576040517f08c379a000000000000000000000000000000000000000000000000000000000815260040161071590611540565b60405180910390fd5b60008581548110610758577f4e487b7100000000000000000000000000000000000000000000000000000000600052603260045260246000fd5b90600052602060002090600302016002018054905084106107ae576040517f08c379a00000000000000000000000000000000000000000000000000000000081526004016107a590611520565b60405180910390fd5b60008086815481106107e9577f4e487b7100000000000000000000000000000000000000000000000000000000600052603260045260246000fd5b90600052602060002090600302016002018581548110610832577f4e487b7100000000000000000000000000000000000000000000000000000000600052603260045260246000fd5b9060005260206000200154905060006001828154811061087b577f4e487b7100000000000000000000000000000000000000000000000000000000600052603260045260246000fd5b90600052602060002090600402016040518060800160405290816000820180546108a490611678565b80601f01602080910402602001604051908101604052809291908181526020018280546108d090611678565b801561091d5780601f106108f25761010080835404028352916020019161091d565b820191906000526020600020905b81548152906001019060200180831161090057829003601f168201915b5050505050815260200160018201805461093690611678565b80601f016020809104026020016040519081016040528092919081815260200182805461096290611678565b80156109af5780601f10610984576101008083540402835291602001916109af565b820191906000526020600020905b81548152906001019060200180831161099257829003601f168201915b505050505081526020016002820154815260200160038201805480602002602001604051908101604052809291908181526020018280548015610a1157602002820191906000526020600020905b8154815260200190600101908083116109fd575b505050505081525050905080600001518160200151826040015194509450945050509250925092565b60008080549050905090565b60008181548110610a5657600080fd5b9060005260206000209060030201600091509050806000018054610a7990611678565b80601f0160208091040260200160405190810160405280929190818152602001828054610aa590611678565b8015610af25780601f10610ac757610100808354040283529160200191610af2565b820191906000526020600020905b815481529060010190602001808311610ad557829003601f168201915b505050505090806001018054610b0790611678565b80601f0160208091040260200160405190810160405280929190818152602001828054610b3390611678565b8015610b805780601f10610b5557610100808354040283529160200191610b80565b820191906000526020600020905b815481529060010190602001808311610b6357829003601f168201915b5050505050905082565b6000805490508410610bd1576040517f08c379a0000000000000000000000000000000000000000000000000000000008152600401610bc890611540565b60405180910390fd5b60008481548110610c0b577f4e487b7100000000000000000000000000000000000000000000000000000000600052603260045260246000fd5b9060005260206000209060030201600201805490508310610c61576040517f08c379a0000000000000000000000000000000000000000000000000000000008152600401610c5890611520565b60405180910390fd5b6000808581548110610c9c577f4e487b7100000000000000000000000000000000000000000000000000000000600052603260045260246000fd5b90600052602060002090600302016002018481548110610ce5577f4e487b7100000000000000000000000000000000000000000000000000000000600052603260045260246000fd5b9060005260206000200154905060018181548110610d2c577f4e487b7100000000000000000000000000000000000000000000000000000000600052603260045260246000fd5b90600052602060002090600402016003016002805490509080600181540180825580915050600190039060005260206000200160009091909190915055600260405180604001604052808581526020018481525090806001815401808255809150506001900390600052602060002090600202016000909190919091506000820151816000019080519060200190610dc5929190611060565b506020820151816001015550505050505050565b60018181548110610de957600080fd5b9060005260206000209060040201600091509050806000018054610e0c90611678565b80601f0160208091040260200160405190810160405280929190818152602001828054610e3890611678565b8015610e855780601f10610e5a57610100808354040283529160200191610e85565b820191906000526020600020905b815481529060010190602001808311610e6857829003601f168201915b505050505090806001018054610e9a90611678565b80601f0160208091040260200160405190810160405280929190818152602001828054610ec690611678565b8015610f135780601f10610ee857610100808354040283529160200191610f13565b820191906000526020600020905b815481529060010190602001808311610ef657829003601f168201915b5050505050908060020154905083565b600080805490508210610f6b576040517f08c379a0000000000000000000000000000000000000000000000000000000008152600401610f6290611540565b60405180910390fd5b60008281548110610fa5577f4e487b7100000000000000000000000000000000000000000000000000000000600052603260045260246000fd5b9060005260206000209060030201600201805490509050919050565b6000600180549050821061100a576040517f08c379a000000000000000000000000000000000000000000000000000000000815260040161100190611520565b60405180910390fd5b60018281548110611044577f4e487b7100000000000000000000000000000000000000000000000000000000600052603260045260246000fd5b9060005260206000209060040201600301805490509050919050565b82805461106c90611678565b90600052602060002090601f01602090048101928261108e57600085556110d5565b82601f106110a757805160ff19168380011785556110d5565b828001600101855582156110d5579182015b828111156110d45782518255916020019190600101906110b9565b5b5090506110e29190611133565b5090565b828054828255906000526020600020908101928215611122579160200282015b82811115611121578251825591602001919060010190611106565b5b50905061112f9190611133565b5090565b5b8082111561114c576000816000905550600101611134565b5090565b600061116361115e846115ac565b61157b565b90508281526020810184848401111561117b57600080fd5b611186848285611636565b509392505050565b600082601f83011261119f57600080fd5b81356111af848260208601611150565b91505092915050565b6000813590506111c781611748565b92915050565b600080604083850312156111e057600080fd5b600083013567ffffffffffffffff8111156111fa57600080fd5b6112068582860161118e565b925050602083013567ffffffffffffffff81111561122357600080fd5b61122f8582860161118e565b9150509250929050565b60006020828403121561124b57600080fd5b6000611259848285016111b8565b91505092915050565b6000806000806080858703121561127857600080fd5b6000611286878288016111b8565b945050602085013567ffffffffffffffff8111156112a357600080fd5b6112af8782880161118e565b935050604085013567ffffffffffffffff8111156112cc57600080fd5b6112d88782880161118e565b92505060606112e9878288016111b8565b91505092959194509250565b6000806040838503121561130857600080fd5b6000611316858286016111b8565b9250506020611327858286016111b8565b9150509250929050565b6000806000806080858703121561134757600080fd5b6000611355878288016111b8565b9450506020611366878288016111b8565b935050604085013567ffffffffffffffff81111561138357600080fd5b61138f8782880161118e565b92505060606113a0878288016111b8565b91505092959194509250565b60006113b7826115dc565b6113c181856115e7565b93506113d1818560208601611645565b6113da81611737565b840191505092915050565b60006113f26014836115e7565b91507f496e76616c6964206f75746c657420696e6465780000000000000000000000006000830152602082019050919050565b60006114326018836115e7565b91507f496e76616c69642072657374617572616e7420696e64657800000000000000006000830152602082019050919050565b61146e8161162c565b82525050565b6000604082019050818103600083015261148e81856113ac565b905081810360208301526114a281846113ac565b90509392505050565b600060608201905081810360008301526114c581866113ac565b905081810360208301526114d981856113ac565b90506114e86040830184611465565b949350505050565b6000604082019050818103600083015261150a81856113ac565b90506115196020830184611465565b9392505050565b60006020820190508181036000830152611539816113e5565b9050919050565b6000602082019050818103600083015261155981611425565b9050919050565b60006020820190506115756000830184611465565b92915050565b6000604051905081810181811067ffffffffffffffff821117156115a2576115a1611708565b5b8060405250919050565b600067ffffffffffffffff8211156115c7576115c6611708565b5b601f19601f8301169050602081019050919050565b600081519050919050565b600082825260208201905092915050565b60006116038261162c565b915061160e8361162c565b925082821015611621576116206116aa565b5b828203905092915050565b6000819050919050565b82818337600083830152505050565b60005b83811015611663578082015181840152602081019050611648565b83811115611672576000848401525b50505050565b6000600282049050600182168061169057607f821691505b602082108114156116a4576116a36116d9565b5b50919050565b7f4e487b7100000000000000000000000000000000000000000000000000000000600052601160045260246000fd5b7f4e487b7100000000000000000000000000000000000000000000000000000000600052602260045260246000fd5b7f4e487b7100000000000000000000000000000000000000000000000000000000600052604160045260246000fd5b6000601f19601f8301169050919050565b6117518161162c565b811461175c57600080fd5b5056fea26469706673582212204e1dee6cd2544ba291fc5c2bf1851e7f7aaef98c18ac85d6a3eca795cb29f54b64736f6c63430008000033",
  "immutableReferences": {},
  "source": "// pragma solidity ^0.8.0;\r\n\r\n// contract Restaurants {\r\n//     // Restaurant name, address, outlets, and rating\r\n//     struct Restaurant {\r\n//         string name;\r\n//         string location;\r\n//         Outlet[] outlets; // Array to store outlets for each restaurant\r\n//     }\r\n\r\n//     Restaurant[] public restaurants;\r\n\r\n//     function addRestaurant(string memory _name, string memory _location) public {\r\n//         restaurants.push(Restaurant(_name, _location, new Outlet[](0))); // Initialize the outlets array\r\n//     }\r\n\r\n//     // Outlet\r\n\r\n//     struct Outlet {\r\n//         string name;\r\n//         string location;\r\n//         uint rating;\r\n//         FoodItem[] foodItems; // Array to store food items for each outlet\r\n//     }\r\n\r\n//     function addOutlet(uint restaurantIndex, string memory _name, string memory _location, uint _rating) public {\r\n//         require(restaurantIndex < restaurants.length, \"Invalid restaurant index\");\r\n//         restaurants[restaurantIndex].outlets.push(Outlet(_name, _location, _rating, new FoodItem[](0))); // Initialize the food items array\r\n//     }\r\n\r\n//     // Get the number of outlets for a specific restaurant\r\n//     function getOutletCount(uint restaurantIndex) public view returns (uint) {\r\n//         require(restaurantIndex < restaurants.length, \"Invalid restaurant index\");\r\n//         return restaurants[restaurantIndex].outlets.length;\r\n//     }\r\n\r\n//     // Get the details of a specific outlet for a restaurant\r\n//     function getOutletDetails(uint restaurantIndex, uint outletIndex) public view returns (string memory, string memory, uint) {\r\n//         require(restaurantIndex < restaurants.length, \"Invalid restaurant index\");\r\n//         require(outletIndex < restaurants[restaurantIndex].outlets.length, \"Invalid outlet index\");\r\n//         Outlet memory outlet = restaurants[restaurantIndex].outlets[outletIndex];\r\n//         return (outlet.name, outlet.location, outlet.rating);\r\n//     }\r\n\r\n//     // Get the number of restaurants\r\n//     function getRestaurantCount() public view returns (uint) {\r\n//         return restaurants.length;\r\n//     }\r\n\r\n//     // Add a food item to a specific outlet of a specific restaurant\r\n//     function addFoodItem(uint _restaurantIndex, uint _outletIndex, string memory _name, uint _price) public {\r\n//         require(_restaurantIndex < restaurants.length, \"Invalid restaurant index\");\r\n//         require(_outletIndex < restaurants[_restaurantIndex].outlets.length, \"Invalid outlet index\");\r\n\r\n//         // Add the food item to the specified outlet of the restaurant\r\n//         restaurants[_restaurantIndex].outlets[_outletIndex].foodItems.push(FoodItem(_name, _price));\r\n//     }\r\n\r\n//     // Food Item\r\n//     struct FoodItem {\r\n//         string name;\r\n//         uint price;\r\n//     }\r\n// }\r\n\r\n// SPDX-License-Identifier: MIT\r\npragma solidity ^0.8.0;\r\n\r\ncontract Restaurants {\r\n    // Restaurant name, address, outlets, and rating\r\n    struct Restaurant {\r\n        string name;\r\n        string location;\r\n        uint[] outletIndices; // Array of indices pointing to outlets\r\n    }\r\n\r\n    Restaurant[] public restaurants;\r\n    Outlet[] public outlets; // Array to store all outlets\r\n\r\n    function addRestaurant(string memory _name, string memory _location) public {\r\n        uint[] memory emptyOutletIndices; // Initialize an empty array of outlet indices\r\n        restaurants.push(Restaurant(_name, _location, emptyOutletIndices));\r\n    }\r\n\r\n    // Outlet\r\n    struct Outlet {\r\n        string name;\r\n        string location;\r\n        uint rating;\r\n        uint[] foodItemIndices; // Array of indices pointing to food items\r\n    }\r\n\r\n    function addOutlet(uint restaurantIndex, string memory _name, string memory _location, uint _rating) public {\r\n        require(restaurantIndex < restaurants.length, \"Invalid restaurant index\");\r\n        \r\n        uint[] memory emptyFoodItemIndices; // Initialize an empty array of food item indices\r\n        outlets.push(Outlet(_name, _location, _rating, emptyFoodItemIndices));\r\n        restaurants[restaurantIndex].outletIndices.push(outlets.length - 1); // Store the index of the new outlet\r\n    }\r\n\r\n   function getOutletCount(uint restaurantIndex) public view returns (uint) {\r\n        require(restaurantIndex < restaurants.length, \"Invalid restaurant index\");\r\n        return restaurants[restaurantIndex].outletIndices.length;\r\n    }\r\n\r\n    // Get the details of a specific outlet for a restaurant\r\n    function getOutletDetails(uint restaurantIndex, uint outletIndex) public view returns (string memory, string memory, uint) {\r\n        require(restaurantIndex < restaurants.length, \"Invalid restaurant index\");\r\n        require(outletIndex < restaurants[restaurantIndex].outletIndices.length, \"Invalid outlet index\");\r\n\r\n        uint outletId = restaurants[restaurantIndex].outletIndices[outletIndex];\r\n        Outlet memory outlet = outlets[outletId];\r\n        \r\n        return (outlet.name, outlet.location, outlet.rating);\r\n    }\r\n\r\n    // Get the number of restaurants\r\n    function getRestaurantCount() public view returns (uint) {\r\n        return restaurants.length;\r\n    }\r\n    FoodItem[] public foodItems; // Array to store all food items\r\n\r\n    // Add a food item to a specific outlet of a specific restaurant\r\n    function addFoodItem(uint _restaurantIndex, uint _outletIndex, string memory _name, uint _price) public {\r\n        require(_restaurantIndex < restaurants.length, \"Invalid restaurant index\");\r\n        require(_outletIndex < restaurants[_restaurantIndex].outletIndices.length, \"Invalid outlet index\");\r\n\r\n        uint outletId = restaurants[_restaurantIndex].outletIndices[_outletIndex];\r\n        outlets[outletId].foodItemIndices.push(foodItems.length); // Store the index of the new food item\r\n        \r\n        foodItems.push(FoodItem(_name, _price)); // Add the food item to the foodItems array\r\n    }\r\n    \r\n\r\n    function getFoodItemCount(uint outletIndex) public view returns(uint){\r\n        require(outletIndex < outlets.length, \"Invalid outlet index\");\r\n        return outlets[outletIndex].foodItemIndices.length;\r\n    }\r\n\r\n    function getFoodItems(uint outletIndex, uint itemIndex)public view returns(string memory, uint){\r\n        require(outletIndex < outlets.length, \"Invalid outlet index\");\r\n        return (foodItems[itemIndex].name, foodItems[itemIndex].price);\r\n    }\r\n\r\n    // Food Item\r\n    struct FoodItem {\r\n        string name;\r\n        uint price;\r\n    }\r\n}",
  "sourcePath": "D:\\Blockchain\\ZomatoDAPP\\contracts\\restaurants.sol",
  "compiler": {
    "name": "solc",
    "version": "0.8.0+commit.c7dfd78e.Emscripten.clang"
  },
  "schemaVersion": "3.4.15",
  "updatedAt": "2023-08-28T04:32:33.469Z",
  "networkType": "ethereum",
  "devdoc": {
    "kind": "dev",
    "methods": {},
    "version": 1
  },
  "userdoc": {
    "kind": "user",
    "methods": {},
    "version": 1
  }
}