{
  "contractName": "Restaurants",
  "abi": [
    {
      "inputs": [
        {
          "internalType": "uint256",
          "name": "",
          "type": "uint256"
        }
      ],
      "name": "foodItems",
      "outputs": [
        {
          "internalType": "string",
          "name": "name",
          "type": "string"
        },
        {
          "internalType": "uint256",
          "name": "price",
          "type": "uint256"
        }
      ],
      "stateMutability": "view",
      "type": "function",
      "constant": true
    },
    {
      "inputs": [
        {
          "internalType": "uint256",
          "name": "",
          "type": "uint256"
        }
      ],
      "name": "outlets",
      "outputs": [
        {
          "internalType": "string",
          "name": "name",
          "type": "string"
        },
        {
          "internalType": "string",
          "name": "location",
          "type": "string"
        },
        {
          "internalType": "uint256",
          "name": "rating",
          "type": "uint256"
        }
      ],
      "stateMutability": "view",
      "type": "function",
      "constant": true
    },
    {
      "inputs": [
        {
          "internalType": "uint256",
          "name": "",
          "type": "uint256"
        }
      ],
      "name": "restaurants",
      "outputs": [
        {
          "internalType": "string",
          "name": "name",
          "type": "string"
        },
        {
          "internalType": "string",
          "name": "location",
          "type": "string"
        }
      ],
      "stateMutability": "view",
      "type": "function",
      "constant": true
    },
    {
      "inputs": [
        {
          "internalType": "string",
          "name": "_name",
          "type": "string"
        },
        {
          "internalType": "string",
          "name": "_location",
          "type": "string"
        }
      ],
      "name": "addRestaurant",
      "outputs": [],
      "stateMutability": "nonpayable",
      "type": "function"
    },
    {
      "inputs": [
        {
          "internalType": "uint256",
          "name": "restaurantIndex",
          "type": "uint256"
        },
        {
          "internalType": "string",
          "name": "_name",
          "type": "string"
        },
        {
          "internalType": "string",
          "name": "_location",
          "type": "string"
        },
        {
          "internalType": "uint256",
          "name": "_rating",
          "type": "uint256"
        }
      ],
      "name": "addOutlet",
      "outputs": [],
      "stateMutability": "nonpayable",
      "type": "function"
    },
    {
      "inputs": [
        {
          "internalType": "uint256",
          "name": "restaurantIndex",
          "type": "uint256"
        }
      ],
      "name": "getOutletCount",
      "outputs": [
        {
          "internalType": "uint256",
          "name": "",
          "type": "uint256"
        }
      ],
      "stateMutability": "view",
      "type": "function",
      "constant": true
    },
    {
      "inputs": [
        {
          "internalType": "uint256",
          "name": "restaurantIndex",
          "type": "uint256"
        },
        {
          "internalType": "uint256",
          "name": "outletIndex",
          "type": "uint256"
        }
      ],
      "name": "getOutletDetails",
      "outputs": [
        {
          "internalType": "string",
          "name": "",
          "type": "string"
        },
        {
          "internalType": "string",
          "name": "",
          "type": "string"
        },
        {
          "internalType": "uint256",
          "name": "",
          "type": "uint256"
        }
      ],
      "stateMutability": "view",
      "type": "function",
      "constant": true
    },
    {
      "inputs": [],
      "name": "getRestaurantCount",
      "outputs": [
        {
          "internalType": "uint256",
          "name": "",
          "type": "uint256"
        }
      ],
      "stateMutability": "view",
      "type": "function",
      "constant": true
    },
    {
      "inputs": [
        {
          "internalType": "uint256",
          "name": "_restaurantIndex",
          "type": "uint256"
        },
        {
          "internalType": "uint256",
          "name": "_outletIndex",
          "type": "uint256"
        },
        {
          "internalType": "string",
          "name": "_name",
          "type": "string"
        },
        {
          "internalType": "uint256",
          "name": "_price",
          "type": "uint256"
        }
      ],
      "name": "addFoodItem",
      "outputs": [],
      "stateMutability": "nonpayable",
      "type": "function"
    },
    {
      "inputs": [
        {
          "internalType": "uint256",
          "name": "outletIndex",
          "type": "uint256"
        }
      ],
      "name": "getFoodItemCount",
      "outputs": [
        {
          "internalType": "uint256",
          "name": "",
          "type": "uint256"
        }
      ],
      "stateMutability": "view",
      "type": "function",
      "constant": true
    },
    {
      "inputs": [
        {
          "internalType": "uint256",
          "name": "outletIndex",
          "type": "uint256"
        },
        {
          "internalType": "uint256",
          "name": "itemIndex",
          "type": "uint256"
        }
      ],
      "name": "getFoodItems",
      "outputs": [
        {
          "internalType": "string",
          "name": "",
          "type": "string"
        },
        {
          "internalType": "uint256",
          "name": "",
          "type": "uint256"
        }
      ],
      "stateMutability": "view",
      "type": "function",
      "constant": true
    },
    {
      "inputs": [
        {
          "internalType": "uint256",
          "name": "money",
          "type": "uint256"
        }
      ],
      "name": "checkout",
      "outputs": [
        {
          "internalType": "uint256",
          "name": "",
          "type": "uint256"
        }
      ],
      "stateMutability": "nonpayable",
      "type": "function"
    }
  ],
  "bytecode": "0x60806040526402540be40060035534801561001957600080fd5b506117f0806100296000396000f3fe608060405234801561001057600080fd5b50600436106100b45760003560e01c80639d93b640116100715780639d93b640146101b5578063ad5461d8146101d3578063b47b793c14610204578063f11cc55514610220578063f35db2fb14610252578063f613d1a714610282576100b4565b80630ac52e65146100b95780630e10bb93146100ea5780634c9ba8521461011b578063632507961461014b5780638233f7fb14610167578063862bb04314610183575b600080fd5b6100d360048036038101906100ce9190611294565b6102b2565b6040516100e192919061154b565b60405180910390f35b61010460048036038101906100ff9190611350565b61036e565b60405161011292919061154b565b60405180910390f35b61013560048036038101906101309190611294565b6104e7565b60405161014291906115bb565b60405180910390f35b61016560048036038101906101609190611228565b610507565b005b610181600480360381019061017c91906112bd565b6105ad565b005b61019d60048036038101906101989190611350565b61072e565b6040516101ac93929190611506565b60405180910390f35b6101bd610a95565b6040516101ca91906115bb565b60405180910390f35b6101ed60048036038101906101e89190611294565b610aa1565b6040516101fb9291906114cf565b60405180910390f35b61021e6004803603810190610219919061138c565b610be5565b005b61023a60048036038101906102359190611294565b610e34565b60405161024993929190611506565b60405180910390f35b61026c60048036038101906102679190611294565b610f7e565b60405161027991906115bb565b60405180910390f35b61029c60048036038101906102979190611294565b61101c565b6040516102a991906115bb565b60405180910390f35b600281815481106102c257600080fd5b90600052602060002090600202016000915090508060000180546102e5906116d3565b80601f0160208091040260200160405190810160405280929190818152602001828054610311906116d3565b801561035e5780601f106103335761010080835404028352916020019161035e565b820191906000526020600020905b81548152906001019060200180831161034157829003601f168201915b5050505050908060010154905082565b6060600060018054905084106103b9576040517f08c379a00000000000000000000000000000000000000000000000000000000081526004016103b09061157b565b60405180910390fd5b600283815481106103f3577f4e487b7100000000000000000000000000000000000000000000000000000000600052603260045260246000fd5b90600052602060002090600202016000016002848154811061043e577f4e487b7100000000000000000000000000000000000000000000000000000000600052603260045260246000fd5b90600052602060002090600202016001015481805461045c906116d3565b80601f0160208091040260200160405190810160405280929190818152602001828054610488906116d3565b80156104d55780601f106104aa576101008083540402835291602001916104d5565b820191906000526020600020905b8154815290600101906020018083116104b857829003601f168201915b50505050509150915091509250929050565b6000816003546104f79190611653565b6003819055506003549050919050565b606060006040518060600160405280858152602001848152602001838152509080600181540180825580915050600190039060005260206000209060030201600090919091909150600082015181600001908051906020019061056b9291906110bb565b5060208201518160010190805190602001906105889291906110bb565b5060408201518160020190805190602001906105a5929190611141565b505050505050565b60008054905084106105f4576040517f08c379a00000000000000000000000000000000000000000000000000000000081526004016105eb9061159b565b60405180910390fd5b606060016040518060800160405280868152602001858152602001848152602001838152509080600181540180825580915050600190039060005260206000209060040201600090919091909150600082015181600001908051906020019061065e9291906110bb565b50602082015181600101908051906020019061067b9291906110bb565b506040820151816002015560608201518160030190805190602001906106a2929190611141565b505050600085815481106106df577f4e487b7100000000000000000000000000000000000000000000000000000000600052603260045260246000fd5b9060005260206000209060030201600201600180805490506107019190611653565b90806001815401808255809150506001900390600052602060002001600090919091909150555050505050565b606080600080805490508510610779576040517f08c379a00000000000000000000000000000000000000000000000000000000081526004016107709061159b565b60405180910390fd5b600085815481106107b3577f4e487b7100000000000000000000000000000000000000000000000000000000600052603260045260246000fd5b9060005260206000209060030201600201805490508410610809576040517f08c379a00000000000000000000000000000000000000000000000000000000081526004016108009061157b565b60405180910390fd5b6000808681548110610844577f4e487b7100000000000000000000000000000000000000000000000000000000600052603260045260246000fd5b9060005260206000209060030201600201858154811061088d577f4e487b7100000000000000000000000000000000000000000000000000000000600052603260045260246000fd5b906000526020600020015490506000600182815481106108d6577f4e487b7100000000000000000000000000000000000000000000000000000000600052603260045260246000fd5b90600052602060002090600402016040518060800160405290816000820180546108ff906116d3565b80601f016020809104026020016040519081016040528092919081815260200182805461092b906116d3565b80156109785780601f1061094d57610100808354040283529160200191610978565b820191906000526020600020905b81548152906001019060200180831161095b57829003601f168201915b50505050508152602001600182018054610991906116d3565b80601f01602080910402602001604051908101604052809291908181526020018280546109bd906116d3565b8015610a0a5780601f106109df57610100808354040283529160200191610a0a565b820191906000526020600020905b8154815290600101906020018083116109ed57829003601f168201915b505050505081526020016002820154815260200160038201805480602002602001604051908101604052809291908181526020018280548015610a6c57602002820191906000526020600020905b815481526020019060010190808311610a58575b505050505081525050905080600001518160200151826040015194509450945050509250925092565b60008080549050905090565b60008181548110610ab157600080fd5b9060005260206000209060030201600091509050806000018054610ad4906116d3565b80601f0160208091040260200160405190810160405280929190818152602001828054610b00906116d3565b8015610b4d5780601f10610b2257610100808354040283529160200191610b4d565b820191906000526020600020905b815481529060010190602001808311610b3057829003601f168201915b505050505090806001018054610b62906116d3565b80601f0160208091040260200160405190810160405280929190818152602001828054610b8e906116d3565b8015610bdb5780601f10610bb057610100808354040283529160200191610bdb565b820191906000526020600020905b815481529060010190602001808311610bbe57829003601f168201915b5050505050905082565b6000805490508410610c2c576040517f08c379a0000000000000000000000000000000000000000000000000000000008152600401610c239061159b565b60405180910390fd5b60008481548110610c66577f4e487b7100000000000000000000000000000000000000000000000000000000600052603260045260246000fd5b9060005260206000209060030201600201805490508310610cbc576040517f08c379a0000000000000000000000000000000000000000000000000000000008152600401610cb39061157b565b60405180910390fd5b6000808581548110610cf7577f4e487b7100000000000000000000000000000000000000000000000000000000600052603260045260246000fd5b90600052602060002090600302016002018481548110610d40577f4e487b7100000000000000000000000000000000000000000000000000000000600052603260045260246000fd5b9060005260206000200154905060018181548110610d87577f4e487b7100000000000000000000000000000000000000000000000000000000600052603260045260246000fd5b90600052602060002090600402016003016002805490509080600181540180825580915050600190039060005260206000200160009091909190915055600260405180604001604052808581526020018481525090806001815401808255809150506001900390600052602060002090600202016000909190919091506000820151816000019080519060200190610e209291906110bb565b506020820151816001015550505050505050565b60018181548110610e4457600080fd5b9060005260206000209060040201600091509050806000018054610e67906116d3565b80601f0160208091040260200160405190810160405280929190818152602001828054610e93906116d3565b8015610ee05780601f10610eb557610100808354040283529160200191610ee0565b820191906000526020600020905b815481529060010190602001808311610ec357829003601f168201915b505050505090806001018054610ef5906116d3565b80601f0160208091040260200160405190810160405280929190818152602001828054610f21906116d3565b8015610f6e5780601f10610f4357610100808354040283529160200191610f6e565b820191906000526020600020905b815481529060010190602001808311610f5157829003601f168201915b5050505050908060020154905083565b600080805490508210610fc6576040517f08c379a0000000000000000000000000000000000000000000000000000000008152600401610fbd9061159b565b60405180910390fd5b60008281548110611000577f4e487b7100000000000000000000000000000000000000000000000000000000600052603260045260246000fd5b9060005260206000209060030201600201805490509050919050565b60006001805490508210611065576040517f08c379a000000000000000000000000000000000000000000000000000000000815260040161105c9061157b565b60405180910390fd5b6001828154811061109f577f4e487b7100000000000000000000000000000000000000000000000000000000600052603260045260246000fd5b9060005260206000209060040201600301805490509050919050565b8280546110c7906116d3565b90600052602060002090601f0160209004810192826110e95760008555611130565b82601f1061110257805160ff1916838001178555611130565b82800160010185558215611130579182015b8281111561112f578251825591602001919060010190611114565b5b50905061113d919061118e565b5090565b82805482825590600052602060002090810192821561117d579160200282015b8281111561117c578251825591602001919060010190611161565b5b50905061118a919061118e565b5090565b5b808211156111a757600081600090555060010161118f565b5090565b60006111be6111b984611607565b6115d6565b9050828152602081018484840111156111d657600080fd5b6111e1848285611691565b509392505050565b600082601f8301126111fa57600080fd5b813561120a8482602086016111ab565b91505092915050565b600081359050611222816117a3565b92915050565b6000806040838503121561123b57600080fd5b600083013567ffffffffffffffff81111561125557600080fd5b611261858286016111e9565b925050602083013567ffffffffffffffff81111561127e57600080fd5b61128a858286016111e9565b9150509250929050565b6000602082840312156112a657600080fd5b60006112b484828501611213565b91505092915050565b600080600080608085870312156112d357600080fd5b60006112e187828801611213565b945050602085013567ffffffffffffffff8111156112fe57600080fd5b61130a878288016111e9565b935050604085013567ffffffffffffffff81111561132757600080fd5b611333878288016111e9565b925050606061134487828801611213565b91505092959194509250565b6000806040838503121561136357600080fd5b600061137185828601611213565b925050602061138285828601611213565b9150509250929050565b600080600080608085870312156113a257600080fd5b60006113b087828801611213565b94505060206113c187828801611213565b935050604085013567ffffffffffffffff8111156113de57600080fd5b6113ea878288016111e9565b92505060606113fb87828801611213565b91505092959194509250565b600061141282611637565b61141c8185611642565b935061142c8185602086016116a0565b61143581611792565b840191505092915050565b600061144d601483611642565b91507f496e76616c6964206f75746c657420696e6465780000000000000000000000006000830152602082019050919050565b600061148d601883611642565b91507f496e76616c69642072657374617572616e7420696e64657800000000000000006000830152602082019050919050565b6114c981611687565b82525050565b600060408201905081810360008301526114e98185611407565b905081810360208301526114fd8184611407565b90509392505050565b600060608201905081810360008301526115208186611407565b905081810360208301526115348185611407565b905061154360408301846114c0565b949350505050565b600060408201905081810360008301526115658185611407565b905061157460208301846114c0565b9392505050565b6000602082019050818103600083015261159481611440565b9050919050565b600060208201905081810360008301526115b481611480565b9050919050565b60006020820190506115d060008301846114c0565b92915050565b6000604051905081810181811067ffffffffffffffff821117156115fd576115fc611763565b5b8060405250919050565b600067ffffffffffffffff82111561162257611621611763565b5b601f19601f8301169050602081019050919050565b600081519050919050565b600082825260208201905092915050565b600061165e82611687565b915061166983611687565b92508282101561167c5761167b611705565b5b828203905092915050565b6000819050919050565b82818337600083830152505050565b60005b838110156116be5780820151818401526020810190506116a3565b838111156116cd576000848401525b50505050565b600060028204905060018216806116eb57607f821691505b602082108114156116ff576116fe611734565b5b50919050565b7f4e487b7100000000000000000000000000000000000000000000000000000000600052601160045260246000fd5b7f4e487b7100000000000000000000000000000000000000000000000000000000600052602260045260246000fd5b7f4e487b7100000000000000000000000000000000000000000000000000000000600052604160045260246000fd5b6000601f19601f8301169050919050565b6117ac81611687565b81146117b757600080fd5b5056fea26469706673582212201ac24c96136673ccd88ebc309314476da6dd9850da00d1dee648e2a91501c7b664736f6c63430008000033",
  "immutableReferences": {},
  "source": "// SPDX-License-Identifier: MIT\r\npragma solidity ^0.8.0;\r\n\r\ncontract Restaurants {\r\n    // Restaurant name, address, outlets, and rating\r\n    struct Restaurant {\r\n        string name;\r\n        string location;\r\n        uint[] outletIndices; // Array of indices pointing to outlets\r\n    }\r\n\r\n    Restaurant[] public restaurants;\r\n    Outlet[] public outlets; // Array to store all outlets\r\n\r\n    function addRestaurant(string memory _name, string memory _location) public {\r\n        uint[] memory emptyOutletIndices; // Initialize an empty array of outlet indices\r\n        restaurants.push(Restaurant(_name, _location, emptyOutletIndices));\r\n    }\r\n\r\n    // Outlet\r\n    struct Outlet {\r\n        string name;\r\n        string location;\r\n        uint rating;\r\n        uint[] foodItemIndices; // Array of indices pointing to food items\r\n    }\r\n\r\n    function addOutlet(uint restaurantIndex, string memory _name, string memory _location, uint _rating) public {\r\n        require(restaurantIndex < restaurants.length, \"Invalid restaurant index\");\r\n        \r\n        uint[] memory emptyFoodItemIndices; // Initialize an empty array of food item indices\r\n        outlets.push(Outlet(_name, _location, _rating, emptyFoodItemIndices));\r\n        restaurants[restaurantIndex].outletIndices.push(outlets.length - 1); // Store the index of the new outlet\r\n    }\r\n\r\n   function getOutletCount(uint restaurantIndex) public view returns (uint) {\r\n        require(restaurantIndex < restaurants.length, \"Invalid restaurant index\");\r\n        return restaurants[restaurantIndex].outletIndices.length;\r\n    }\r\n\r\n    // Get the details of a specific outlet for a restaurant\r\n    function getOutletDetails(uint restaurantIndex, uint outletIndex) public view returns (string memory, string memory, uint) {\r\n        require(restaurantIndex < restaurants.length, \"Invalid restaurant index\");\r\n        require(outletIndex < restaurants[restaurantIndex].outletIndices.length, \"Invalid outlet index\");\r\n\r\n        uint outletId = restaurants[restaurantIndex].outletIndices[outletIndex];\r\n        Outlet memory outlet = outlets[outletId];\r\n        \r\n        return (outlet.name, outlet.location, outlet.rating);\r\n    }\r\n\r\n    // Get the number of restaurants\r\n    function getRestaurantCount() public view returns (uint) {\r\n        return restaurants.length;\r\n    }\r\n    FoodItem[] public foodItems; // Array to store all food items\r\n\r\n    // Add a food item to a specific outlet of a specific restaurant\r\n    function addFoodItem(uint _restaurantIndex, uint _outletIndex, string memory _name, uint _price) public {\r\n        require(_restaurantIndex < restaurants.length, \"Invalid restaurant index\");\r\n        require(_outletIndex < restaurants[_restaurantIndex].outletIndices.length, \"Invalid outlet index\");\r\n\r\n        uint outletId = restaurants[_restaurantIndex].outletIndices[_outletIndex];\r\n        outlets[outletId].foodItemIndices.push(foodItems.length); // Store the index of the new food item\r\n        \r\n        foodItems.push(FoodItem(_name, _price)); // Add the food item to the foodItems array\r\n    }\r\n    \r\n\r\n    function getFoodItemCount(uint outletIndex) public view returns(uint){\r\n        require(outletIndex < outlets.length, \"Invalid outlet index\");\r\n        return outlets[outletIndex].foodItemIndices.length;\r\n    }\r\n\r\n    function getFoodItems(uint outletIndex, uint itemIndex)public view returns(string memory, uint){\r\n        require(outletIndex < outlets.length, \"Invalid outlet index\");\r\n        return (foodItems[itemIndex].name, foodItems[itemIndex].price);\r\n    }\r\n    uint balance = 10000000000;\r\n    function checkout(uint money)public returns(uint){\r\n        balance = balance - money;\r\n        return balance;\r\n    }\r\n\r\n    // Food Item\r\n    struct FoodItem {\r\n        string name;\r\n        uint price;\r\n    }\r\n}",
  "sourcePath": "D:\\Blockchain\\ZomatoDAPP\\contracts\\restaurants.sol",
  "compiler": {
    "name": "solc",
    "version": "0.8.0+commit.c7dfd78e.Emscripten.clang"
  },
  "schemaVersion": "3.4.15",
  "updatedAt": "2023-08-30T19:23:07.404Z",
  "networkType": "ethereum",
  "devdoc": {
    "kind": "dev",
    "methods": {},
    "version": 1
  },
  "userdoc": {
    "kind": "user",
    "methods": {},
    "version": 1
  }
}